:100000001EC040C03FC03EC03DC07DC23BC03AC0E4
:10001000C4C238C037C036C035C034C033C0010395
:10002000000004000000000038000000000037005D
:100030000202020202020102040810201603112427
:100040001FBECFEDCDBF20E0A8E7B0E001C01D92FC
:10005000A939B207E1F710E0A0E6B0E0E6E7F6E084
:1000600002C005900D92A837B107D9F710E0CFE193
:10007000D0E003C02197FE01F6D2CE31D107D1F7EF
:1000800096D2F7C2BDCFCF92DF92EF92FF920F933D
:100090001F93CF93DF936C01EB017B01E40EF51E00
:1000A00010E000E0CE15DF0561F06991D601ED9119
:1000B000FC910190F081E02DC6010995080F191FF0
:1000C000F1CFC801DF91CF911F910F91FF90EF9079
:1000D000DF90CF9008953FB7F89480917D00909184
:1000E0007E00A0917F00B091800022B708B601FE8B
:1000F00005C02F3F19F00196A11DB11D3FBFBA2FBA
:10010000A92F982F8827BC01CD01620F711D811D79
:10011000911D43E0660F771F881F991F4A95D1F7FD
:100120000895CF92DF92EF92FF92CF93DF936B010E
:100130007C01D1DFEB01CFDF6C1B7D0B683E734090
:10014000A0F0C114D104E104F10439F4DF91CF919E
:10015000FF90EF90DF90CF90089581E0C81AD1080A
:10016000E108F108C851DC4FE6CFC114D104E10425
:10017000F10409F7EBCF85B7806285BF889584B11C
:1001800095B1089587FF09C08F7731F1813031F142
:10019000823031F1833031F18FEF90E0FC01EA5C85
:1001A000FF4F2491805D9F4FFC018491882399F03B
:1001B00090E0880F991FFC01E65DFF4FA591B49177
:1001C000FC01EC5DFF4F859194918FB7F894EC9111
:1001D000E22BEC938FBF089585E0DFCF82E0DDCF87
:1001E00084E0DBCF83E0D9CF87FF09C08F7771F13F
:1001F000813071F1823071F1833071F18FEF90E0D5
:10020000FC01E25EFF4F3491FC01EA5CFF4F249158
:10021000FC01E05DFF4FE491EE23B9F0332329F0B8
:100220003130E1F48AB58F778ABDF0E0EE0FFF1F21
:10023000EC5DFF4FA591B4918FB7611120C0F89488
:10024000EC9120952E232C938FBF089585E0D7CF76
:1002500082E0D5CF84E0D3CF83E0D1CF323019F420
:100260008AB58F7DE1CF333021F480B78F7D80BF99
:10027000DCCF3430D1F68CB58F7D8CBDD6CFF894E1
:10028000EC912E2BE0CFCF93DF93EC0160E08E81D9
:10029000ABDF61E08E81A8DF60E08E81A5DF83E1C6
:1002A00090E00197F1F7DF91CF910895CF92DF921F
:1002B000EF92FF920F931F93CF93DF936C017C011A
:1002C00087E0E80EF11CD0E0C0E0062F10E0B80196
:1002D0000C2E02C0759567950A94E2F76170F701DC
:1002E00081917F0181DF2196C430D10581F7C6015C
:1002F000DF91CF911F910F91FF90EF90DF90CF9002
:10030000C2CFCF92DF92EF92FF920F931F93CF93C2
:10031000DF93EC01F62E642F8C8166DF8D818F3F99
:1003200011F060E061DF0F2D10E08F8584FF23C0A6
:100330006E0187E0C80ED11CF12CE12CB8010E2C07
:1003400002C0759567950A94E2F76170F601819194
:100350006F014ADFFFEFEF1AFF0A88E0E816F104A9
:1003600069F7CE01DF91CF911F910F91FF90EF9030
:10037000DF90CF9088CFB80184E0759567958A9516
:10038000E1F7CE0193DF6F2DCE01DF91CF911F9169
:100390000F91FF90EF90DF90CF9088CF40E0682FD3
:1003A00081E890E0AECFCF93DF93823029F4909133
:1003B0009000986090939000809394001092950024
:1003C00080E48093960080E18093970080E580939D
:1003D000980080918500D6DE809186008F3F09F0DD
:1003E000D1DE80918700CEDEC1E8D0E09E012158A9
:1003F00030408091900084FD09C084E090E0219617
:100400002817390734F48E81BDDEF0CF88E090E004
:10041000F6CF8EEC90E30197F1F760E080918500D4
:10042000E3DE60E080918700DFDE809186008F3F11
:1004300011F060E0D9DE8091900084FD31C063E06E
:1004400081E890E033DFCFE5D4E0CE010197F1F70A
:1004500063E081E890E02ADF2197F1F763E081E82B
:1004600090E024DF80E290E00197F1F762E081E81C
:1004700090E01CDF80919000806290DF84E08093A8
:1004800091008CE08BDF81E089DF8EEE91E00197B7
:10049000F1F782E08093920086E0DF91CF917ECFEA
:1004A00080627CDF8FE594E00197F1F78091900006
:1004B000806274DF80E290E00197F1F78091900014
:1004C00080626CDFD7CFCF93DF93C1E8D0E088891B
:1004D0008E7F888B886062DF68EB7BE080E090E055
:1004E00020DE8889982F9160988B896057DF68EBB0
:1004F0007BE080E090E0DF91CF9113CE41E001DF1F
:1005000081E090E008951F920F920FB60F92112490
:100510002F933F938F939F93AF93BF9380917900D5
:1005200090917A00A0917B00B0917C00309178008E
:1005300026E0230F2D3768F129E8230F0396A11D2C
:10054000B11D209378008093790090937A00A09356
:100550007B00B0937C0080917D0090917E00A09103
:100560007F00B09180000196A11DB11D80937D0098
:1005700090937E00A0937F00B0938000BF91AF91D5
:100580009F918F913F912F910F900FBE0F901F90D1
:1005900018950296A11DB11DD4CF1F920F920FB6D0
:1005A0000F9211240F900FBE0F901F90189583E0AB
:1005B0008ABD82E083BF789489B7826089BF80E476
:1005C0008CBD8FEF8DBD84EC80BF83E886B982E05F
:1005D000EADE4FE050E068E670E081E890E053DD4D
:1005E0000FE81CE887E8F82E07B916B913B885B7E5
:1005F000877E886085BFBFDDC0E1D0E0BCDD21978C
:10060000E9F761DFF7B816B913B885B7877E886058
:1006100085BFB1DDC0E1D0E0AEDD2197E9F753DF62
:1006200068EE73E080E090E07CDDDECFE1E8F0E0B2
:100630001382128284E690E09183808381E0848338
:100640008FEF858382E0868383E0878384E08087E1
:1006500085E0818786E08287138614861586168654
:10066000178681E0A0CEEE0FFF1F0590F491E02DDC
:060670000994F894FFCF8D
:10067600000000007E0243004869204B5454207855
:08068600696F616C61626100A3
:00000001FF
